:02000002D0002C
:1040000000400D00BC960D00000006000C000501EC
:0840100004017E050000000020
:04401800388D0D00D2
:10401C0009480A49884208B505D0094A824202D0AB
:10402C00121A04F036FD0748074A0021121A04F050
:10403C0056FD014808BD00BFB0D1032020960D00ED
:10404C0024D2032024D20320F0E7032070B504F01F
:10405C00DDFA074C074BE41AA40800251E46A542BE
:10406C0004D056F8253098470135F8E770BD00BFED
:10407C0014960D00D8950D0000F0DAB808B500F0D4
:10408C0033F9BDE8084004F08FBA00F09DBF00F092
:10409C00A3BF00F0A1BF000008B5034A00210C200B
:1040AC0000F0F6FEFEE700BF4D4C0D000078B0FAB4
:1040BC0080F0400970470123037070477047006A15
:1040CC000368DB68184770B504684368054604EB61
:1040DC00C306A64204D0204601F043FD0834F8E79D
:1040EC00286800F079FF284670BD10B503680446B7
:1040FC009B689847A368013BA3602BB923682046B3
:10410C00DB68BDE81040184710BD10B50446406888
:10411C0028B14368013B43600BB9FFF7E6FF20462B
:10412C0010BD70B504684368054604EBC306A6428F
:10413C0009D0606828B14368013B43600BB9FFF7B5
:10414C00D4FF0834F3E7286800F046FF284670BD1A
:10415C000A4B10B50446036002F0FCFE214603F046
:10416C00E9F804F09FF904F091F92046044B40F86B
:10417C00043B02F0E5FF204610BD00BF6C8D0D0026
:10418C00548D0D0010B50446FFF7E2FF20462421A4
:10419C0004F0FFFA204610BD0EB400B58CB00DAA89
:1041AC00202352F8041B03928DE806000493016847
:1041BC00002304AA1E20059300F07AFE0CB05DF8D3
:1041CC0004EB03B07047000008B504490448FFF73E
:1041DC00E3FF044B00221A6008BD00BF7C8D0D006C
:1041EC00D0E3032070E3032073B505460E460D485B
:1041FC000D49FFF7D1FF0024B44211D02B780B49A5
:10420C000848DB074BBFB5F801306B78ADF80630CA
:10421C00ADF80630BDF80620FFF7BEFF0134EBE722
:10422C0002B070BDD0E30320878D0D009E8D0D0074
:10423C0008B500220E490F4801F0F6FA01210720BB
:10424C0004F022FA0121062004F01EFA00210520B8
:10425C0004F01AFA04F026F94FF4E13104F012F9E3
:10426C0001F0B8FB00220449BDE8084001F0F8BB9E
:10427C00F5410D0054D20320D5410D00F0B580B3AB
:10428C0061B36AB3174F86180D460024A24220DD95
:10429C00012B0AD116F801EC4FEA2E1E17F80EE08E
:1042AC0001F814E016F801EC09E010F804E04FEA0C
:1042BC002E1E17F80EE001F814E010F804E00EF0D2
:1042CC000F0E013417F80EE085F801E0013E0235BF
:1042DC00DCE7002301F812300120F0BD0846F0BDE8
:1042EC001046F0BDAD8D0D002DE9F04F97B001F0EB
:1042FC0071FB01F004FC0446002840F0D280A64B70
:10430C00A6491860A648DFF8F882FFF745FF00F0D1
:10431C009FFC054601F05EFB3222A24901F0C2FB74
:10432C00814600F095FC064601F054FB4FF44871B1
:10433C0001F09AFB721B9C499948FFF72DFF4A46E6
:10434C009A499748FFF728FF4C4580F2F8800CA853
:10435C0000F01DFF01220CA9404601F07BF9A8F1E9
:10436C00080706460021384600F0FEFE01210546EE
:10437C00384600F0F9FE02218246384600F0F4FE81
:10438C0003218346384600F0EFFE0421079038469F
:10439C0000F0EAFE05210690384600F0E5FE059691
:1043AC0098F94810069A079B049103900292019386
:1043BC002A4653467E497A48CDF800B0FFF7ECFE0A
:1043CC00414608A801F0E6F808997548FFF7E4FEA5
:1043DC00324678497248FFF7DFFE0022D5B2AE4272
:1043EC0002F1010A0FD900220CA911A801F009F859
:1043FC002A46119B70496A48FFF7CEFE11A803F0BC
:10440C005CFE5246EAE7002E44D06C490CA800F042
:10441C007BFF00283ED001F0DDFA01233A4601462D
:10442C0011A801F0E3FF11A9654801F05AFC11A88D
:10443C0001F09EFB624801F06DFA002800F0A780A5
:10444C0001F0C8FA01F058FB5E495548FFF7A4FE8D
:10445C004FF6956111A800F0ADFE11AA5A495848C3
:10446C0001F01BFC41F6012111A800F0A3FE11AADA
:10447C005649534801F011FC41F2EF0111A800F02C
:10448C0099FE53494E4811AA01F007FC012107205F
:10449C0004F00BF908A803F010FE013408F15408DD
:1044AC0052E7474801F036FA002848D03A4F3D68A9
:1044BC00002D44D1474C424911A801F042FE119AFB
:1044CC0023682260129A119363686260139A1293A4
:1044DC0011A8A368A2601393FFF723FE62684AB188
:1044EC003D492F48FFF758FEAA46254663689A4572
:1044FC00C0F28A80394C324911A801F0C5FE119ADC
:10450C0023682260129A119363686260139A129363
:10451C0011A8A368A2601393FFF7D5FD626862B17E
:10452C002F491F48DFF8DCA0FFF736FE4FF00009DB
:10453C00254663689945C0F2DF8001233B60204823
:10454C0001F0E8F9F0B12749204801F00BF92649B0
:10455C00244803F08CFE014600B10121062004F032
:10456C00A4F80A222149184801F0D6F8052004F0D5
:10457C00B5F808B91E4906E01C4A1E490848FFF761
:10458C000BFE2FE11C490648FFF706FE2AE11B49EA
:10459C000348FFF701FE7DE770E30320BE8D0D009D
:1045AC00D0E303206CD20320DB8D0D00F28D0D00C7
:1045BC000C8E0D00498E0D005B8E0D00708E0D0063
:1045CC005CD20320758E0D0054D2032044D20320FC
:1045DC0064D2032074E303209D8E0D0038D2032097
:1045EC00CC8E0D0028D203203E920D00D4E2032085
:1045FC00FE8E0D000D8F0D001D8F0D008B8E0D008E
:10460C0074D2032020E3032029684FEACA06314400
:10461C0011A801F00DF911A800F0DDFD0123022213
:10462C007249FFF72BFE714A71497248FFF7B4FDCE
:10463C00296811A8314401F0FBF811A800F0C4FD61
:10464C000128804655D12968DFF8C091314411A862
:10465C0001F0EEF811A800F0BEFD434604226349B8
:10466C000C30FFF70BFE29684FF02D0B314411A8CD
:10467C0089F808B001F0DCF811A800F0ACFD434655
:10468C0002225D490A30FFF7F9FD296889F80DB05F
:10469C00314411A801F0CCF811A800F09CFD434660
:1046AC00022256490830FFF7E9FD296889F812B053
:1046BC00314411A801F0BCF811A800F08CFD434660
:1046CC0002224F490630FFF7D9FD296889F817B047
:1046DC00314411A801F0ACF811A800F07CFD0622C1
:1046EC0048494346FFF7CAFD4A4647494148FFF748
:1046FC0053FD0AF1010AF9E629684FEAC90631446B
:10470C0011A801F000F811A800F065FD01230222A8
:10471C003E49FFF7B3FD3D4A3D493648FFF73CFDA6
:10472C00296811A8314400F0EEFF11A800F04CFDEF
:10473C000128804653D1296811A8314400F0E3FFC9
:10474C0011A800F048FD4346042230490C30FFF715
:10475C0095FD29684FF02D0B314411A88AF808B04B
:10476C0000F0D1FF11A800F036FD43460222294982
:10477C000A30FFF783FD29688AF80DB0314411A87F
:10478C0000F0C1FF11A800F026FD43460222224989
:10479C000830FFF773FD29688AF812B0314411A86C
:1047AC0000F0B1FF11A800F016FD434602221B4990
:1047BC000630FFF763FD29688AF817B0314411A859
:1047CC0000F0A1FF11A800F006FD06221449434693
:1047DC00FFF754FD0D4A0C490648FFF7DDFC09F1C3
:1047EC000109A6E617B0BDE8F08F00BF48E303202F
:1047FC00AF8E0D00D0E3032051E3032056E30320DA
:10480C005BE3032060E30320BE8E0D0020E3032056
:10481C00E78E0D0029E303202EE3032033E303206E
:10482C0038E3032070B5046843681426054606FB7C
:10483C000346A64204D0204603F03FFC1434F8E7AC
:10484C00286800F0C9FB284670BD8842F8B50646BA
:10485C000C46154616D9904215D2A2F114056C1AC5
:10486C00A1F114070444AF421CD02CB129462046B8
:10487C0003F013FC2B7C2374284603F01EFC143D20
:10488C00143CF0E70ED0AC420CD02EB12146304691
:10489C0003F003FC237C3374204603F00EFC143429
:1048AC001436F0E7F8BD2DE9F041002303604360B6
:1048BC0083604E689E4204460F4624DD4FF0140878
:1048CC0008FB06F000F080FB0546E0B194E806001A
:1048DC0008FB0212FFF7B9FF206800F07DFB256092
:1048EC00A6603E687B6808FB0368464509D02DB17D
:1048FC003146284603F073FC337C2B741436143584
:10490C00F3E77B6863602046BDE8F08170B58CB03E
:10491C00002400F0A5F900940194029403F0C2FD68
:10492C006946064603A84F4DFFF7BDFF03A906A82D
:10493C00FFF7B9FF4C4B2B6006A909A8FFF7B3FF93
:10494C0009AA0121281D02F058FE09A8FFF76AFFE9
:10495C0006A8FFF767FF454B2B602E6203A8FFF7F5
:10496C0061FF434B2B6003F09DFD4FF4165103F098
:10497C0089FD02F0EFFA294602F0D2FD6846FFF7F6
:10498C0051FF3C493C4A284603F0FEFE3B4B3C4D54
:10499C001C704FF6FF729A805C80022000F0A0FA27
:1049AC003849394803F0DCFB334A3849364803F0C0
:1049BC00EBFE3749374800F09CFC37482E4A374904
:1049CC0004604460846003F0DFFE354801F04CFE67
:1049DC00294A3449324803F0D7FE3348264A334932
:1049EC0004604460846003F0CFFE314801F062FD46
:1049FC00214A30492E4803F0C7FE2F4801F0EEF84B
:104A0C001D4A2E492C4803F0BFFE2D4801F052FDE3
:104A1C00194A28492A4803F0B7FE2A4801F04AFDF2
:104A2C00154A2449274803F0AFFE274801F042FD00
:104A3C00114A2049244803F0A7FE41F268062819C0
:104A4C0000F08EFB04F10800284400F059FD04F13D
:104A5C002C002844543400F053FDB442EFD10CB078
:104A6C0070BD00BFE8E20320548D0D0010930D00C3
:104A7C006C8D0D005D410D0024D203204CD203201F
:104A8C006CD20320CD920D0028D20320C7800D00DC
:104A9C00398F0D000CE3032074E303202F410D002C
:104AAC00E0E2032017410D0038D20320D3400D0063
:104ABC0080E303206F5B0D005CD203207D5B0D0057
:104ACC0054D2032044D2032064D2032008B5024BF5
:104ADC001B689B68019308BD7802030008B5024B64
:104AEC001B685B6F019308BD7802030008B5024B8D
:104AFC001B689B6F019308BD7802030008B5024B3D
:104B0C001B68DB6F019308BD7802030008B5034BEB
:104B1C001B68D3F88430019308BD000078020300B1
:104B2C0008B5034B1B68D3F89830019308BD0000FF
:104B3C007802030008B5034B1B68D3F8B830019317
:104B4C0008BD00007802030008B5034B1B68D3F8BE
:104B5C00BC30019308BD00007802030008B5034B7C
:104B6C001B68D3F8C430019308BD00007802030021
:104B7C0008B5034B1B68D3F8E030019308BD000067
:104B8C007802030008B5034B1B68D3F8E43001939B
:104B9C0008BD00007802030008B5034B1B68D3F86E
:104BAC00F030019308BD00007802030008B5034BF8
:104BBC001B68D3F8F430019308BD000078020300A1
:104BCC0008B5024B1B689B68019308BD48020300A3
:104BDC0008B5024B1B681B69019308BD4802030012
:104BEC0008B5024B1B685B69019308BD48020300C2
:104BFC0008B5024B1B681B6B019308BD48020300F0
:104C0C0008B5024B1B685B6C019308BD480203009E
:104C1C0008B5024B1B68DB6C019308BD480203000E
:104C2C0008B5024B1B685B6D019308BD480203007D
:104C3C0008B5024B1B685B68019308BD18020300A2
:104C4C0008B5024B1B68DB68019308BD1802030012
:104C5C0008B5024B1B685B69019308BD1802030081
:104C6C0008B5024B1B681B68019308BD2C0203009E
:104C7C0008B5024B1B689B68019308BD2C0203000E
:104C8C0008B5024B1B68DB68019308BD2C020300BE
:104C9C0008B5024B1B681B69019308BD2C0203006D
:104CAC0008B5024B1B685B69019308BD2C0203001D
:104CBC0008B5024B1B681B6A019308BD2802030050
:104CCC0008B5024B1B685B6A019308BD2802030000
:104CDC0008B5024B1B689B6A019308BD28020300B0
:104CEC0008B5024B1B68DB6A019308BD2802030060
:104CFC0008B5024B1B681B6B019308BD280203000F
:104D0C0008B5024B1B685B6B019308BD28020300BE
:104D1C0008B5024B1B681B6C019308BD28020300ED
:104D2C0008B5024B1B685B69019308BD6402030064
:104D3C0008B5024B1B689B68019308BD6802030011
:104D4C0008B5024B1B68DB68019308BD68020300C1
:104D5C0008B5024B1B68DB69019308BD30020300E8
:104D6C0008B5024B1B681B6A019308BD3002030097
:104D7C0008B5024B1B681B68019308BD3C0203007D
:104D8C0008B5024B1B689B68019308BD3C020300ED
:104D9C0008B5024B1B68DB68019308BD3C0203009D
:104DAC0008B5024B1B681B69019308BD3C0203004C
:104DBC0008B5024B1B685B69019308BD3C020300FC
:104DCC0008B5024B1B689B69019308BD3C020300AC
:104DDC0008B5024B1B68DB69019308BD3C0203005C
:104DEC0008B5024B1B681B6A019308BD3C0203000B
:104DFC0008B5024B1B689B6A019308BD3C0203007B
:104E0C0008B5024B1B68DB6A019308BD3C0203002A
:104E1C0008B5024B1B681B68019308BD4C020300CC
:104E2C0008B5024B1B685B68019308BD4C0203007C
:104E3C0008B5024B1B689B68019308BD4C0203002C
:104E4C0008B5024B1B681B69019308BD4C0203009B
:104E5C0008B5024B1B685B69019308BD4C0203004B
:104E6C0008B5024B1B689B69019308BD4C020300FB
:104E7C0008B5024B1B68DB69019308BD4C020300AB
:104E8C0008B5024B1B681B6A019308BD4C0203005A
:104E9C0008B5024B1B685B6B019308BD60020300F5
:104EAC0008B5024B1B681B6D019308BD6002030023
:104EBC0008B5024B1B685B6D019308BD60020300D3
:104ECC0008B5024B1B68DB6E019308BD6002030042
:104EDC0008B5024B1B681B6F019308BD60020300F1
:104EEC0008B5024B1B685B68019308BD20020300E8
:104EFC0008B5034B1B68D3F88830019308BD00003C
:104F0C002002030008B5034B1B68D3F894300193BF
:104F1C0008BD00002002030008B5024B1B68DB6BC8
:104F2C00019308BD4402030008B5024B1B685B6883
:104F3C00019308BD4002030008B5024B1B689B6837
:104F4C00019308BD4002030008B5024B1B68DB68E7
:104F5C00019308BD4002030008B5024B1B681B6996
:104F6C00019308BD4002030008B5024B1B685B6946
:104F7C00019308BD4002030008B5024B1B689B69F6
:104F8C00019308BD4002030008B5024B1B68DB69A6
:104F9C00019308BD4002030008B5024B1B681B6A55
:104FAC00019308BD4002030008B5024B1B681B6B44
:104FBC00019308BD4002030008B5024B1B685B6BF4
:104FCC00019308BD4002030008B5024B1B681B6827
:104FDC00019308BD1C02030008B5024B1B685B68FB
:104FEC00019308BD1C02030008B5024B1B689B68AB
:104FFC00019308BD1C02030008B5024B1B685B6AD9
:10500C00019308BD1C0203007047002070477047D5
:10501C000020704770470020704710B514210446DB
:10502C0003F0B7FB204610BD10B51421044603F065
:10503C00B0FB204610BD10B51421044603F0A9FBAB
:10504C00204610BDFFF723B8FFF721B8FFF71FB8B4
:10505C0030B58BB02023054600240293084B0093F7
:10506C0002AA2346074903940120FFF719FF286879
:10507C000549008823462A46FFF766FD0BB030BD74
:10508C00BF8F0D00B48F0D00CD660D0008B50A2042
:10509C00024A0021FFF7FCFE08BD00BF4D4C0D007D
:1050AC0010B5036804469B689847A368013BA3604E
:1050BC002BB923682046DB68BDE81040184710BDAB
:1050CC0070B5931C0144884218D00478240904F16B
:1050DC003005392D88BF04F13705064603F8025C0C
:1050EC00347804F00F0404F13005392D88BF04F135
:1050FC00370503F8015C01300233E4E7104670BD5C
:10510C00A0F13003DAB2092A01D818467047A0F191
:10511C006103052B01D857387047A0F14103052BCB
:10512C0094BF37384FF0FF307047000010B50023A4
:10513C000370044B04461868FFF76AFD01232370C3
:10514C00204610BD90E3032010B5037804461BB134
:10515C00024B1868FFF764FD204610BD90E3032056
:10516C000022026042607047052994BF405C002019
:10517C00704708B582798B799A4206D1062203F0E2
:10518C0079FCB0FA80F0400908BD002008BD10B5CC
:10519C0014220446002103F0A2FC204610BD10B5D9
:1051AC00034601F1140251F8044B43F8044B9142AD
:1051BC00F9D110BD38B504460D46FFF7E8FF0023C2
:1051CC0025802374204638BD037C13F0FD0F14BFDB
:1051DC00012000207047704710B551B1034601F112
:1051EC00100251F8044B43F8044B9142F9D10123BE
:1051FC00037410BD10B5034601F1140251F8044BB1
:10520C0043F8044B9142F9D110BD10B50446FFF799
:10521C00DBFF28B9088823881B1A5842584110BD57
:10522C001022204603F026FCB0FA80F0400910BD95
:10523C00F7B505460E4619B9102203F050FC51E0A3
:10524C002421304603F0C3FC042802D0002710248C
:10525C003BE03078FFF754FF041E47DB7078FFF714
:10526C004FFF002842DB40EA04108DF80400B078B0
:10527C00FFF746FF041E39DBF078FFF741FF0028EB
:10528C0034DB40EA04109DF80430C0B240EA03203D
:10529C002880002327E02CB3F05DFFF731FF0306D5
:1052AC0012D4013C000128552421304603F08FFC18
:1052BC000137874208D2F05DFFF722FF40B2002889
:1052CC00A2BF2B5D1843285501372421304603F02B
:1052DC007EFC8742DFD32C440023A54202D004F885
:1052EC00013DFAE701232B7403B0F0BD00232B80A2
:1052FC00CFE738B504460D46FFF749FF204629464F
:10530C00FFF796FF204638BD10B586B0044601A8BD
:10531C00FFF7EFFF01A92046FFF777FF06B010BD9E
:10532C0001390F23C25C01F8012F013BDBB2FF2BCB
:10533C00F8D170472DE9F04107468EB098460D46DE
:10534C00002958D0002A58D0FFF73EFF0646541EBD
:10535C0098B93B8805905BBA05AA022101A8ADF863
:10536C000430FFF7ADFE042C28BF0424224605A907
:10537C00284603F08EFB2E553BE001A93846FFF77B
:10538C00CFFF05AAB8F1000F02D0102101A824E02C
:10539C0004210DEB0100FFF793FE2D260DF11D02EC
:1053AC00022102A88DF81C60FFF78AFE0DF1220283
:1053BC0002210DF10A008DF82160FFF781FE0DF13D
:1053CC002702022103A88DF82660FFF779FE8DF8DD
:1053DC002B600BAA06210DF10E00FFF771FE242C99
:1053EC0028BF2424224605A9284603F052FB00239B
:1053FC002B55601C02E0084600E010460EB0BDE8DC
:10540C00F08110B58AB0044600232522084669466F
:10541C00FFF790FF6946204602F0A2FE20460AB034
:10542C0010BD38B5054601B112B90020286238BD4F
:10543C001F2A28BF1F22144603F02BFB2C62204688
:10544C0038BDF0B58BB10024E51C8D420FD8661C1D
:10545C00055D875D974205D12E44B14207D31C6090
:10546C00681CF0BD01352C44EEE71846F0BD002059
:10547C00F0BD2DE9F74304460E461D461746002A9B
:10548C003AD00A4601AB016AFFF7DBFF9DF82830E2
:10549C00226A03BBF8B1961C2E44361A1F2E2BD849
:1054AC00DDF8048008F10209C8EB0202121A00EBC5
:1054BC00080105EB090092B22144204403F0F4FAF0
:1054CC006B1C04F808302A46394604EB090003F03B
:1054DC00E0FA266210E0901C2B181F2B0CD86B1CCA
:1054EC00A354224420623946567020442A4603F0C5
:1054FC00D0FA226A2A442262206A03B0BDE8F08303
:10550C001FB50446034600F11F02002003F8010BEF
:10551C0093424FF00001F9D104AA062302F8013D91
:10552C0001232162009120461946FFF7A2FF204675
:10553C0004B010BD73B515461C460A4601AB016A92
:10554C000646FFF77EFF034630F002000CD0981E93
:10555C00844228BF044635B10199023122463144B8
:10556C00284603F096FA204602B070BD70B513467B
:10557C000C4615460A4608210646FFF7DBFF38B9EC
:10558C002B46224630460921BDE87040FFF7D2BFBA
:10559C0070BD000070B50C4688B00C49054602F091
:1055AC00DFFD1F2269462046FFF7E0FF064648B1A3
:1055BC0000241DF80410284602F04CFE10B10134F2
:1055CC00A642F6D1284608B070BD00BFCD920D00A2
:1055DC002DE9F04F002485B00646894617469A46B9
:1055EC0025464FF01408A346316A8C422ED203ABE9
:1055FC004A46091B3019FFF724FF034630B35545C3
:10560C0024D2042803990ED12144314408FB05F21D
:10561C0091F803E08978B81841EA0E21B9520135A6
:10562C0080F810B00EE012280CD1023121446A1C13
:10563C000190314408FB05700092FFF7CDFD009AF4
:10564C00019B1546039A13441C44CDE7284605B02C
:10565C00BDE8F08F2DE9F04113460D4616460A467B
:10566C0002210746FFF7B4FF4FF01408331A08FB6A
:10567C000052044603213846FFF7AAFF0444331BAB
:10568C0008FB045206213846FFF7A2FF0444331BE3
:10569C0008FB045207213846FFF79AFF2044BDE867
:1056AC00F081000038B500254FF6FF7304464380A7
:1056BC000E22294605700571063003F010FA04F12C
:1056CC001400FFF764FD04F12800FFF760FD0449A6
:1056DC0004F13C0002F044FDE5642565204638BD2C
:1056EC00CD920D0010B58369C26903EBC2029342DF
:1056FC00184606D0046824888C4203F10803F6D1BE
:10570C0010BD002010BD10B5096804461431FFF718
:10571C0046FD204610BD000037B50D46C9B1C2B1DB
:10572C0004682378F42A28BFF42233B1A08900231B
:10573C0003B0BDE83040FFF7FDB960884FF6FF714C
:10574C00884208D0A189009313462A46FFF710FA25
:10575C0003E0034801E06FF0D10003B030BD00BF9F
:10576C00F2FEFFFF7FB50546F4200E46FFF72CFC3A
:10577C000446B8B10146F4222846FFF7CDFF051EBA
:10578C000BDD2A462146684602F0DEFC69463046AF
:10579C0002F030FD684602F090FC2046FFF71CFC3E
:1057AC002846FFE704B070BD70B504680E4621783A
:1057BC0086B000292ED162884FF6FF739A4229D009
:1057CC00238A53B318252A46684603F088F9012327
:1057DC00ADF80030134BADF802500193029463887E
:1057EC00ADF80C30238AADF80E30A389ADF810302B
:1057FC005EB123799A0644BF022305932379DB0615
:10580C0042BF059B43F00103059300216846FFF757
:10581C00CDF904E06FF0D10001E06FF0770006B035
:10582C0070BD00BF1D5A0D000368D9641A6570471E
:10583C0010B504460968FFF7B2FC204610BD000005
:10584C002DE9F0418AB020230E46029300252E4B01
:10585C00009302AA2B462D4903950120FFF720FB4C
:10586C003368DC681F694FF01C0804EBC707083469
:10587C00A4F108039F42326817D0ADF80A8054F89F
:10588C00083C9B8AADF8203054F8083CDB8AADF814
:10589C0022301088009533461D4A02A9FFF75EF9A5
:1058AC00002804F10804E3DA2AE09469D56900279A
:1058BC0004EBC5050834A4F108039D421FD054F82D
:1058CC00083CDB89CBB11422002102A803F007F9B4
:1058DC0054F8083CD989336802AA18880097132316
:1058EC00FFF746F948B10AAB184402A900F8207C2E
:1058FC0054F8080C3C3002F085FC0834DBE700203F
:10590C000AB0BDE8F08100BFDB8F0D00B48F0D0035
:10591C0015650D00036818884FF6FF73C01A18BF81
:10592C000120704702680B68C2F802304B68C2F85D
:10593C000630704710B50A6852F8023F036053688E
:10594C00436010BD1FB502680B6812881B889A4211
:10595C000C460CD101466846FFF7ECFF214602A825
:10596C00FFF7E8FF02A96846FFF703FC00B9002027
:10597C0004B010BD10B504463420FEF786FB01467A
:10598C0068B10023036043608360C36003614361BB
:10599C008361C361036243628362C36203632160F8
:1059AC0019B90A4A0A20FFF773FA0020FFF78EF89C
:1059BC0020B1064A00210A20FFF76AFA002221686A
:1059CC000348FFF7E9F8204610BD00BF4D4C0D0011
:1059DC00415E0D0010B50A4C2368DB070ED420463F
:1059EC00FEF764FB50B10748FFF7C4FF2046FEF7F3
:1059FC0062FB054A0549034802F0C6FE014810BD8A
:105A0C008CE3032088E3032024D20320A95B0D0040
:105A1C0070B50368093B012B8AB004460E4619D8B1
:105A2C00FFF7D8FFA1880068FFF75CFE024658B963
:105A3C0020230293084B0390009302AA03460749C4
:105A4C003220FFF72DFA05E0F56C1DB1336DE168DE
:105A5C002069A8470AB070BDFE8F0D00B48F0D00F1
:105A6C00036899621A63704730B585B000246846A4
:105A7C000D46FFF75BFB0C23214601A80194029411
:105A8C00ADF806300394FFF731F8214601A8ADF8C4
:105A9C000C50FFF723F804466846FFF755FB2046E9
:105AAC0005B030BD30B58BB00D4601A81446FFF7DC
:105ABC003DFBB5B1ACB1002202A90D48069402928F
:105ACC00039204920792089209920595FFF716F833
:105ADC000028B8BF04460298A8BF079CFFF77CFAC1
:105AEC0000E0044C01A8FFF72FFB20460BB030BDA3
:105AFC00AF5F0D00F2FEFFFF0020FFF707B8036851
:105B0C00D8690028D4BF0020012070470B680360BF
:105B1C0013B15A6801325A60704710B551F8043B02
:105B2C00044640F8043BFFF7F1FF23680BB9FFF77D
:105B3C00ADFA204610BD10B551F8043B044640F8B0
:105B4C00043BFFF7E3FF204610BD10B50446006888
:105B5C0028B14368013B43600BB9FFF7A1FA20461B
:105B6C0010BD10B504460430FFF7EFFF204610BD02
:105B7C0010B504460430FFF7E8FF204610BD10B501
:105B8C00046904F11800FEF79EFA04F10C00FEF70C
:105B9C00C8FA2046BDE81040FEF779BAF8B504689B
:105BAC000746C4B1A569E36905EBC306AE4204D050
:105BBC00281DFFF7CAFF0835F8E7A069FFF70CFAB4
:105BCC0004F10C00FEF77FFA2046FEF7AAFA342106
:105BDC00204602F0DEFD3846F8BD000073B5002506
:105BEC000560456006462420FEF74FFA044678B15E
:105BFC0003464FF6FF7223F8022BC0F802505D608B
:105C0C008572C572C560056145618561C5610562B6
:105C1C00002314200193FEF738FA034628B1012221
:105C2C0042608260084A0260046102A8726840F80F
:105C3C00042D73603460FFF788FF33680BB9FFF7EE
:105C4C0025FA304602B070BDA08F0D0038B50C6837
:105C5C0003689C4205460CD014B163680133636041
:105C6C00286828B14368013B43600BB9FFF718FA69
:105C7C002C60284638BD10B502680B680446D06C01
:105C8C0010B1D864126D1A65204651F8043B40F8E7
:105C9C00043BFFF7DBFF204610BD2DE9F043036802
:105CAC009C69DE6987B00F46904604EBC606B44289
:105CBC00A14611D054F8081B01A81431FFF76FFA54
:105CCC00414601A8FFF7A1FA05460028EFD0494646
:105CDC003846FFF7D0FF00E00025284607B0BDE8A6
:105CEC00F08310B551F8043B044640F8043BFFF731
:105CFC00ADFF204610BD884270B515461AD99042AA
:105D0C0019D2A1F10806511A0439151F44182B1F7A
:105D1C009E4225D0042C07D055F8043C44F8043C92
:105D2C0029462046FFF7F2FE2846FFF70EFF083DF6
:105D3C00083CECE714D00C1D061D231F9D420FD010
:105D4C00042E07D054F8043C46F8043C2146304657
:105D5C00FFF7DCFE2046FFF7F8FE08340836ECE7C8
:105D6C0070BD2DE9F041046843680546884604EB94
:105D7C00C307A74218D041462046FFF7E3FD06466D
:105D8C0008B90834F5E78CB1201DFFF7DEFE2B684F
:105D9C006A6804F1080103EBC2022046FFF7ABFF6F
:105DAC006B68013B6B6002E0002600E02646304643
:105DBC00BDE8F081F7B5044651F8043B4768009301
:105DCC0001A8FFF7A3FE6668A3689E4214DB0136A8
:105DDC00002E0BDDF000FFF7F7F8054618B394E83A
:105DEC00060001EBC202FFF786FF00E000252068E9
:105DFC00FFF7F2F82560A6602668626806EBC70517
:105E0C0006EBC202294605F10800FFF774FF35B115
:105E1C00009B46F8373001A9281DFFF777FE636811
:105E2C0001336360012501A8FFF78FFE284603B0FC
:105E3C00F0BD00002DE9F04104468EB003A80D46DC
:105E4C00FFF774F92368032B02D0042B42D087E0B0
:105E5C0004A8FFF7C3FE049B22891A806268049988
:105E6C0052F8083FC1F802305368C1F8063007A851
:105E7C00049B069305A9FFF749FE06A905F1180036
:105E8C00FFF798FF044607A8FFF75FFE2023069351
:105E9C0074B9364B009306AA234635490794322031
:105EAC00FEF7FEFF049B21461888FEF739FE0DE035
:105EBC00304A0092002306AA2D4907930120FEF7D1
:105ECC00EFFF6B6A13B1E96A04A8984705A8FFF7BE
:105EDC003CFE45E021892846FFF704FC07460028D4
:105EEC003ED00468A369E1694FF6FF72228003EB90
:105EFC00C101994203D053F8080B4280F9E7E668D8
:105F0C00236906EBC308B04504D0301DFFF71DFE16
:105F1C000836F8E700232361A669E36906EBC3089A
:105F2C00B04504D0301DFFF710FE0836F8E700230B
:105F3C00E361A372E372AB6A13B1296B38469847DD
:105F4C0020230D4A06930092002309490793012050
:105F5C0006AAFEF7A5FF394605F11800FFF701FF69
:105F6C0003A8FFF7F1F80EB0BDE8F08116900D0014
:105F7C00B48F0D003C900D0059900D0038B50D1EDE
:105F8C00044606DD542169430068FFF72DF820B95B
:105F9C0038BD0068FFF720F800202060A5600120C4
:105FAC0038BD70B55426C0B0054632460C4601A823
:105FBC00002102F094FD03A8FFF7A2FA0CA8FFF74A
:105FCC009FFA2A4601AB52F8100F5168EA8903C3B5
:105FDC002B78A9688DF854300CA8FFF722FAAA89FF
:105FEC00696803A8FFF71DFAA5691DB1E16901A84D
:105FFC00A8473CE0E06898B163692269934239D2C2
:10600C005A1C626106FB0300512201A902F041FDFA
:10601C00626923699A422DD32846FEF777FD29E061
:10602C00324601A916A802F034FD324616A92BA857
:10603C00656802F02EFDA3689D4204DB691C2046B6
:10604C00FFF79CFFB0B163682268542606FB052558
:10605C0006FB0322521B2946A81902F025FD3246E5
:10606C002BA9284602F015FD636801336360636950
:10607C000133636140B070BD8842F8B506460C46EA
:10608C00154614D9904213D2A2F108056C1AA1F14D
:10609C0008070444AF4218D01CB129462046FFF72C
:1060AC004AFD281DFFF751FD083D083CF2E70CD0D6
:1060BC00AC420AD01EB121463046FFF73CFD201DF4
:1060CC00FFF743FD08340836F2E7F8BD70B50E1E35
:1060DC0005460BDDF000FEF777FF044670B195E83E
:1060EC00060001EBC202FFF7C7FF00E0002428689E
:1060FC00FEF772FF2C60AE60012070BD70BD2DE903
:10610C00F04100230360436083600E464968994266
:10611C00044613DDFFF7DAFF80B135687368276832
:10612C0005EBC308454507D01FB129463846FFF794
:10613C0002FD08350837F5E7736863602046BDE853
:10614C00F08138B50B689B7A05460C4633B9084686
:10615C00FEF77EFF10B9236801229A722168284647
:10616C000C31FFF7CCFF284638BD73B504464568A3
:10617C006846FFF7E0FC6168A368994205DB0131D2
:10618C002046FFF7A3FF064698B12368626803EB2D
:10619C00C50503EBC202294605F10800FFF76CFFA9
:1061AC001DB169462846FFF7C6FC6368013363607E
:1061BC00012601A8FFF7C9FC304602B070BD884229
:1061CC00F8B506460C46154614D9904213D2A2F1E6
:1061DC0008056C1AA1F108070444AF4218D01CB191
:1061EC0029462046FFF799FC281DFFF7AEFC083D19
:1061FC00083CF2E70CD0AC420AD01EB12146304626
:10620C00FFF78BFC201DFFF7A0FC08340836F2E7E3
:10621C00F8BD70B50E1E05460BDDF000FEF7D4FE82
:10622C00044670B195E8060001EBC202FFF7C7FF08
:10623C0000E000242868FEF7CFFE2C60AE60012041
:10624C0070BD70BD2DE9F041002303604360836095
:10625C000E4649689942044613DDFFF7DAFF80B118
:10626C0035687368276805EBC308454507D01FB12F
:10627C0029463846FFF751FC08350837F5E77368AF
:10628C0063602046BDE8F08130B50B689B7A85B021
:10629C0005460C462BB901A8FFF753FF01A8FDF7E3
:1062AC0040FF2368DB7A3BB9214601A8FFF7C8FA07
:1062BC0010B923680122DA72216828461831FFF7D9
:1062CC00C1FF284605B030BD2DE9F0430D4693B013
:1062DC004FF01808174606464246002104A81C46F3
:1062EC0002F0FDFB69682868079702AB03C34FF007
:1062FC00010905AB83E80300ADF81090ADF81280EE
:10630C00FFF768FB344B0893FFF764FB002203682C
:10631C003168099304A8FEF735FC074620B13368B1
:10632C004FF6FF721A8053E029463046FFF7FAFA0F
:10633C00FFF750FB3146036812AD03F1180851F812
:10634C00043B45F8203D0BA8FFF7E0FB29464046EF
:10635C00FFF730FD80460BA8FFF7F7FB20230A93CD
:10636C00B8F1000F14D11D4B00932A4643461C492B
:10637C00CDF82C803220FEF793FD33684146188807
:10638C00FEF7CEFB336817484FF6FF721A801FE0FA
:10639C00154B00932A463B4611490B974846FEF78E
:1063AC007FFDA4B131462846FFF76EFF0A9C0B9B7C
:1063BC0004EBC306A64205D020460121FFF7F4F9F1
:1063CC000834F7E72846FDF77EFE002000E0204663
:1063DC0013B0BDE8F08300BF415E0D0078900D0056
:1063EC00B48F0D00FCFEFFFF94900D0070B50446B9
:1063FC0015461E46FFF7F2FB33460022294620467F
:10640C00FFF762FF204670BD73B5044645686846C9
:10641C00FFF783FB6168A368994205DB01312046D5
:10642C00FFF7F7FE064698B12368626803EBC505D3
:10643C0003EBC202294605F10800FFF7C0FE1DB1AF
:10644C0069462846FFF769FB6368013363600126E0
:10645C0001A8FFF77AFB304602B070BD10B50446B8
:10646C00406808B1FDF713FE204610BD07B503695F
:10647C000C308DE8090003F13C0001F01EFE68466B
:10648C00FFF7ECFF03B05DF804FB000038B5002308
:10649C000446036014200D46FDF7F7FD28B10123D7
:1064AC0043608360024B036005612060204638BD69
:1064BC00688F0D0070B5002586B0056045600446F8
:1064CC005420FDF7E2FDCDF810D00646059008B13A
:1064DC00FFF7E8F8314601AB02AA03A80595FFF7D0
:1064EC00D5FF039B62682660636003A80392FFF7E5
:1064FC002CFB04A8FFF7B2FF23680BB9FEF7C6FD0F
:10650C00204606B070BD00002DE9F041DFF8048193
:10651C008CB005460F4600262B689E4275D202A809
:10652C00FFF7C8FF029B2A895A806B6802982A24BD
:10653C007443234414305B7E13F0020F1EBF10F81B
:10654C00103C43F0020300F8103C6B6823445B7E64
:10655C005B0742BF10F8103C43F0040300F8103CFA
:10656C006B6823445B7E190742BF10F8103C43F064
:10657C00080300F8103C6B6823445B7EDA0642BFCC
:10658C0010F8103C43F0100300F8103C6B682344E7
:10659C005B7E9B0642BF10F8103C43F0200300F8D2
:1065AC00103C696821440431FEF724FE6A68029BA2
:1065BC00144402A9E28B1A81228C5A81628C9A8132
:1065CC00A28CDA81E28C1A82228D5A82386800F110
:1065DC00180404A8FFF7A1FA204604A9FFF714FF3A
:1065EC00044605A8FFF7B1FA54B920230493CDF85B
:1065FC000080234604AA064905943220FEF750FC7D
:10660C0003A8FFF7A2FA013686E70CB0BDE8F081CB
:10661C00B48F0D00B1900D0010B50446406808B160
:10662C00FDF735FD204610BD07B503690C308DE82C
:10663C0009006846FFF7F0FF03B05DF804FB0000AB
:10664C0038B500230446036014200D46FDF71DFDEC
:10665C0028B1012343608360024B03600561206015
:10666C00204638BD848F0D0070B5002586B00560BE
:10667C00456004461820FDF708FDCDF810D00646FD
:10668C00059018B1FEF783FDB582F582314601AB5A
:10669C0002AA03A80595FFF7D3FF039B6268266047
:1066AC00636003A80392FFF750FA04A8FFF7B4FF46
:1066BC0023680BB9FEF7EAFC204606B070BD00005B
:1066CC002DE9F041DFF880808CB006460F4600259E
:1066DC0033689D4233D202A8FFF7C6FF1C247168B1
:1066EC0002986C4321440431FEF784FD7368029ACE
:1066FC00234402A91B8B938273681C44638BD38243
:10670C00386800F10C0404A8FFF715FA204604A918
:10671C00FFF72BFD044605A8FFF717FA54B9202301
:10672C000493CDF80080234604AA06490594322030
:10673C00FEF7B6FB03A8FFF708FA0135C8E70CB063
:10674C00BDE8F081B48F0D00DD900D0002480023F0
:10675C000360FEF755BA00BF90E3032010B58368C1
:10676C00044613B1032201469847204610BD00226F
:10677C0011464068FEF710BC002211464068FEF737
:10678C001BBC00224068FEF70FBC002281F0010107
:10679C004068FEF7F9BB00231A4619464068FEF71D
:1067AC00EBBB00231A4619464068FEF7DDBB0022FE
:1067BC0011464068FEF7D0BB002211464068FEF738
:1067CC00BBBB002202214068FEF7BEBB00231A4669
:1067DC004068FEF7A9BB0000024B03225A60024A34
:1067EC001A60704794E303205C910D007047F8B574
:1067FC00064615460C468F18BC4206D0336814F872
:10680C00011B9B6830469847F6E72846F8BD0022E6
:10681C00007CFEF74DBA0021007CFEF751BA002136
:10682C00007CFEF755BA0021007CFEF759BA002116
:10683C00007CFEF75DBA10B51421044601F0A9FFE7
:10684C00204610BD10B504464FF47A730846A36079
:10685C000021044B207461602360FEF759FA204636
:10686C0010BD00BF90910D000021007CFEF748BACE
:10687C00704710B51821044601F08BFF204610BD5F
:10688C00F0B5037D062B8DB00E4600F104074FF0DA
:10689C00000402D000F1080518E00CAD394605F8EB
:1068AC00304D2F232A460A20FEF73AFA284602F0EA
:1068BC0071F933680246DB682946304698470FE089
:1068CC0024B12E21304601F03DFB044415F8011D86
:1068DC000A22304601F072FBBD420444F0D120463E
:1068EC000DB0F0BD10B5054B0446112240F8043B29
:1068FC00002102F0F4F8204610BD00BFB8910D0045
:10690C000346074A10B543F8042B01F1100251F865
:10691C00044B43F8044B9142F9D10A781A7010BD1C
:10692C00B8910D0010B59DF8084044EA032343EAE2
:10693C00024242EA016104234160037510BD37B580
:10694C000D788B784A78C97800912946FFF7EAFFD1
:10695C0003B030BD00F11002012312F8101C012904
:10696C00104604D152F8041C03EB410304E0022945
:10697C0004BF52F8041C5B18013B02F11002ECD16D
:10698C0070470EB42DE9F04187B000AF07F1340425
:10699C00054654F8046B7C6023463246102107F1FF
:1069AC000800FEF729FB0F2816D900F1080323F085
:1069BC000703E846ADEB030D3246411C23466846FF
:1069CC007C60FEF719FB021E04DD2B6869469B6890
:1069DC0028469847C54607E030B12B6802469B68AD
:1069EC0007F10801284698471C37BD46BDE8F04121
:1069FC0003B0704713B502AB026803F8011D94682D
:106A0C0019460122A04702B010BD8368FBB11A7869
:106A1C00032A1AD8DFE802F00417021D052070477C
:106A2C0002685B685268D05C2D2814D0A0F130034A
:106A3C00092B10D9742810D066280ED0A0F16E0343
:106A4C00584258417047062070470020704718463E
:106A5C00704704207047032070470220704710B520
:106A6C000446FFF7D2FF02280DD016D3042814D801
:106A7C002268A36850685B680A2200211844BDE8AC
:106A8C00104002F049B92268A36852685B68D05C78
:106A9C00A0F174035842584110BD002010BD10B530
:106AAC00436904465BB18068E060013B1030A06034
:106ABC00206163612BB1FFF74DFFA06001E0184628
:106ACC0010BD012010BD10B57D210446FFF792FFCB
:106ADC0001232371204610BD08B50379012B02D088
:106AEC00022B02D008BD2C2100E03A21FFF782FFD7
:106AFC0008BD10B50446FFF7EFFF20467B21FFF7DA
:106B0C0079FF00232371204610BD000038B50446E0
:106B1C000D46FFF7E1FF23680449DB6820462A464F
:106B2C00984701232371204638BD00BF468E0D00C7
:106B3C0038B504460D46FFF7CFFF23680449DB68E0
:106B4C0020462A46984701232371204638BD00BFB2
:106B5C00AA8D0D00F8B50D461746222104462F4488
:106B6C00FFF748FF2A462946BA4238D0164616F88F
:106B7C00015B222D03D05C2D01D01F2D2DD8236855
:106B8C00521A9B68204698475C212046FFF732FF3B
:106B9C000C2D19D007D8092D0FD00A2D12D0082D85
:106BAC0014D162210AE0222D05D05C2D03D00D2DCD
:106BBC000CD1722102E0294600E074212046FFF737
:106BCC0019FF09E06E21F9E76621F7E723680A4906
:106BDC00DB682A462046984731463246C4E7914244
:106BEC0004D02368521A9D682046A84722212046CB
:106BFC00FFF700FFF8BD00BFDB910D0070B5044638
:106C0C000D461646FFF768FF204632462946FFF729
:106C1C00A1FF02232371204670BD70B504460D46BA
:106C2C001646FFF759FF204632462946FFF792FFDA
:106C3C0001232371204670BD10B500230446036068
:106C4C0043601048A060E360D1B10B78032B06D0F1
:106C5C00B3B9136858684B68C35C6E2B08D01368C3
:106C6C0058684B680344A3608B6849685B1AE360FF
:106C7C001146204651F8043B40F8043BFEF7E6FF72
:106C8C00204610BDCD920D00002310B504460360C4
:106C9C0043608360C3600361436171B10B78012B66
:106CAC000BD101F110038360CB684361114651F89D
:106CBC00043B40F8043BFEF7C9FF204610BD0023FF
:106CCC0010B5044603604360816031B1114651F840
:106CDC00043B40F8043BFEF7B9FF204610BD80682A
:106CEC000368DB681847704719B10B6808465B6886
:106CFC001847704719B10B6808465B68184770470E
:106D0C0070477047704738B504460D4600682E2111
:106D1C0001F024FF2368C31A2B6023B1037803B15D
:106D2C00013023682060184638BD10B50C2104468C
:106D3C0001F02FFD204610BD10B50421044601F0D2
:106D4C0028FD204610BD10B50421044601F021FD9C
:106D5C00204610BD38B50C46054601F0A3FB844215
:106D6C000DD001F013FB844205D101F00FFBBDE8FF
:106D7C00384001F004BB21462846FFF7BBFF38BD65
:106D8C0008B501F0F5FEB0FA80F0400908BD38B541
:106D9C00054608460C4601F0FDFE214602462846F3
:106DAC00BDE83840FFF739BF0068FDF731BF70B55B
:106DBC00044608460D4601F0EDFE236802462946BE
:106DCC002046DB68BDE87040184713B502AB02687B
:106DDC0003F8011DD46819460122A04702B010BD6A
:106DEC002DE9F04F4568076885B09146142255434C
:106DFC000193AB10194D02925D438B463C46012327
:106E0C00002D039323DD029B6E1003FB06F004EBB5
:106E1C0000084A46B8F804A02058D14528BF52466D
:106E2C00594601F0BFFE039B48B9D14503D1019AE5
:106E3C0013703546E4E78CBF0120002000E0C00F42
:106E4C000028F6D0AE1B08F11404013EF1E7E41B58
:106E5C000248A410604305B0BDE8F08FCDCCCCCC7B
:106E6C00F0B585B003690191067E13B309B304AF85
:106E7C00002347F8043D00F10C041D46394601A8D7
:106E8C00FFF741FF0146A0B104AB039A03F8055D7F
:106E9C002046FFF7A5FF9DF80B3053B1236814244F
:106EAC0004FB0034083434F9023C002BA8BFDEB2DA
:106EBC00E4E7304605B0F0BD10B5094C2368DB079C
:106ECC000BD42046FDF7F2F838B12046FDF7F3F865
:106EDC00044A0549054801F057FC044810BD00BFA1
:106EEC009CE3032024D203200F6D0D00B4D10320AA
:106EFC0010B5094C2368DB070BD42046FDF7D6F8F8
:106F0C0038B12046FDF7D7F8044A0549054801F089
:106F1C003BFC044810BD00BFCCE3032024D203206B
:106F2C000D6D0D00B0D1032038B500250446056069
:106F3C004560856005614561856140F8245FFDF71A
:106F4C005FFEFFF7B9FFE061FFF7D2FF2573206208
:106F5C00204638BD10B50A4C2368DB070ED42046FA
:106F6C00FDF7A4F850B10748FFF7DEFF2046FDF708
:106F7C00A2F8054A0549034801F006FC014810BD7A
:106F8C00A0E30320A4E3032024D20320CB730D0041
:106F9C000023024A02490348FDF79ABFAD720D0067
:106FAC003D720D00C5710D0000231A461946184696
:106FBC00FDF78EBF73B502AC0E6951F8043B44F873
:106FCC00083D054601A8FEF7A1FD2246314628469C
:106FDC00FFF775FE01A8FEF7B8FD284602B070BD9C
:106FEC0073B502AC8E6851F8043B44F8083D054675
:106FFC0001A8FEF78BFD224631462846FFF744FEDA
:10700C0001A8FEF7A2FD284602B070BD73B502AC14
:10701C00CE6851F8043B44F8083D054601A8FEF73C
:10702C0075FD224631462846FFF706FE01A8FEF7FD
:10703C008CFD284602B070BD30B58BB00D460146B4
:10704C0004A8FFF7CDFF04A8FFF729FDE8B104A9B8
:10705C006846FFF7DBFF0F490298FFF791FE0446E5
:10706C0010B12C1C18BF012401A8FEF76EFD002CDA
:10707C00E9D004A96846FFF79DFF6846FFF7EFFCCF
:10708C00286001A8FEF761FDDDE705A8FEF75DFDB0
:10709C000BB030BD2C920D0037B50C462046134971
:1070AC00154601F065FD40B901F0FCF94FF416519D
:1070BC0001F0E8F901F0F6F915E00D49204601F070
:1070CC0057FD78B902A94FF4165341F8043D2846F0
:1070DC00FFF7B2FF01F05AF9019901F04DF901F0F7
:1070EC0055F900E0002003B030BD00BF31920D0017
:1070FC0038920D0070B5046843681426054606FBEB
:10710C000346A64205D004F10800FFF7F3FF143440
:10711C00F7E72868FDF760FF284670BD70B5046876
:10712C004368054604EB0316A64204D0204600F043
:10713C00C4FF1034F8E72868FDF74EFF284670BDF1
:10714C0010B504460C30FFF7D5FF2046FFF7E6FFDD
:10715C00204610BD10B5044B044640F8043BFFF725
:10716C00EFFF204610BD00BF548D0D0010B5044636
:10717C00FFF7F0FF2046242101F00BFB204610BD49
:10718C0010B5034B03600446FFF7E4FF204610BD27
:10719C0004920D0010B50446FFF7F2FF204624219F
:1071AC0001F0F7FA204610BD10B5036804461868C4
:1071BC00FDF736FD204610BD2DE9F04F9B461B4BCD
:1071CC005B68C3F3080385B082460E46904653BBFA
:1071DC00FFF7C0FE044624300390FFF7E5FD237B48
:1071EC00F3B90123237325686368F6B205EB8309B1
:1071FC004D4513D055F8047B4146381DFFF730FE42
:10720C008642F5D33B68CDF800B09B689E46384665
:10721C004346324651467746B847E9E70023237385
:10722C0003A8FFF7C1FF05B0BDE8F08F00ED00E04B
:10723C002DE9F74F9946194B5B68C3F308030746D2
:10724C008846164633BBFFF785FE04462430019072
:10725C00FFF7AAFD237BD3B9012323732568636849
:10726C005FFA86FB05EB830A55450ED055F8046B87
:10727C004946301DFFF7F4FD8345F5D3336842468C
:10728C00DB68394630469847EEE70023237301A8A4
:10729C00FFF78AFF03B0BDE8F08F00BF00ED00E000
:1072AC002DE9F341154B5B68C3F30803044688468C
:1072BC00FBB9FFF74FFE064624300190FFF774FD33
:1072CC0096E8A000462605EB8707AF4207D101A838
:1072DC00FFF76AFFB442B4BF002001200AE055F862
:1072EC00040B41460430FFF7BBFD8642A8BF06469F
:1072FC00EBE7002002B0BDE8F08100BF00ED00E03C
:10730C0070B503684268044603EB82029A42184641
:10731C000ED006680D68AE4203F10403F6D1011DD0
:10732C00521A01F0C1FB6368013B6360012070BD20
:10733C00002070BD1FB50446243001910390FFF767
:10734C0033FD01A92046FFF7DBFF20B903A8FFF7A7
:10735C002BFF04B010BD6368002BF7D1FFF724FEA0
:10736C00F4E770B5056943691826044606FB035615
:10737C00AE4215D005F110012046FFF7C1FF63683E
:10738C000BB9FFF711FEE06929690368DB689847C0
:10739C00696919B1206A0368DB6898471835E7E713
:1073AC0025696369182606FB0356B54204D02846A6
:1073BC0000F083FE1835F8E70023636170BD73B5E8
:1073CC00044602ADFFF7F0FD04F1240045F8040D6E
:1073DC00FFF7EAFC2046FFF7C4FF2846FFF7E4FE60
:1073EC0025696369182606FB0356B54204D0284666
:1073FC0000F063FE1835F8E72069FDF7EDFD206815
:10740C00FDF7EAFD204602B070BD03680A68026011
:10741C000B6043684A6842604B6083688A6882608C
:10742C008B60704710B50023044603604360836093
:10743C00FFF7EBFF204610BD8842F8B50446164610
:10744C0025D9904224D2551A143D2C44A1F114078D
:10745C00A2F10C050026A5F108039F4237D084B198
:10746C0055F8083C236035F8043CA38035F9023C00
:10747C00E380A660E6602661294604F10800FFF768
:10748C00C4FF2846FFF736FE143C143DE3E71ED03C
:10749C0001F108050027A5F108039E4217D084B11D
:1074AC0055F8083C236035F8043CA38035F9023CC0
:1074BC00E380A760E7602761294604F10800FFF725
:1074CC00A4FF2846FFF716FE14341435E3E7F8BD85
:1074DC00F8B5456883689D4204460E4617460EDB98
:1074EC000135002D05DDA9000068FDF77DFD20B9F3
:1074FC00F8BD0068FDF770FD00202060A5602568D0
:10750C00626805EB860105EB8202521A081D01F038
:10751C00CBFA45F826706368013363600120F8BD2F
:10752C0037B5044624300D460190FFF73DFC236827
:10753C00616803EB810083421A4609D01268AA42A3
:10754C0003F10403F7D101A8FFF72EFE00250EE08E
:10755C002A462046FFF7BCFF05460028F3D0636897
:10756C00012B01D1FFF714FD01A8FFF71DFE2846E2
:10757C0003B030BD8842F8B506460C46154614D902
:10758C00904213D2A2F110056C1AA1F11007044419
:10759C00AF4218D01CB12946204600F07EFD28468B
:1075AC0000F08BFD103D103CF2E70CD0AC420AD041
:1075BC001EB12146304600F070FD204600F07DFDE6
:1075CC0010341036F2E7F8BD70B50E1E05460BDD13
:1075DC003001FDF7F9FC044670B195E8060001EBAB
:1075EC000212FFF7C7FF00E000242868FDF7F4FC47
:1075FC002C60AE60012070BD70BD2DE9F04F0023F2
:10760C0095B092464622036043608360C360036179
:10761C00436102760291DAF8041008939942054608
:10762C0009930A9340F39D8008A8FFF7CDFF00282B
:10763C0040F097808EE021460BA800F02EFD0BA9A0
:10764C000FA8099E00F029FD09990A9B9942C0F2E6
:10765C00CE80013108A8FFF7B7FF002840F0C780A3
:10766C000FA800F02AFD0BA800F027FD1434A74248
:10767C00E1D100260B960C960D96B146099B9E42C5
:10768C0080F2A8803301089AD3580693002B00F09F
:10769C009F8014237343CDF81C9001930BAC07A966
:1076AC0006A8FFF730FB0746002800F0918014ABCA
:1076BC00014603F8399D079A2046FFF791FB9DF888
:1076CC0017800090B8F1000F53D1BDF81C30ADF805
:1076DC0040304FF6FF730F97ADF84230CDF8448031
:1076EC00CDF84880CDF84C806768A3689F424FDA8C
:1076FC00009BD4F800B06168142253430BEB0307D2
:10770C0002FB01B207F1140039460393FFF794FE14
:10771C00A7B1039B0F9A4BF80320BDF84030BB80F8
:10772C00BDF94230FB80C7F80890C7F80C90C7F839
:10773C00109011A907F10800FFF767FE6368013389
:10774C00636011A8FFF7D6FCB8F1000F11D00BA89D
:10775C00FFF7D0FC08A8FFF7E1FC284615B0BDE800
:10776C00F08FDAF80040DAF80430142707FB0347EF
:10777C007DE72368009A142404FB0234069B1B78D3
:10778C0023BBDAF80030019A13441B7CE3801DE024
:10779C000137002F0FDD142303FB07F00393FDF7D4
:1077AC0013FC834678B194E80600039B03FB02129A
:1077BC00FFF742FE00E0C3462068FDF70DFCC4F85D
:1077CC0000B0A76094E74FF00108BAE7083466E709
:1077DC00013653E708A92846FFF717FE0BA905F158
:1077EC000C00FFF712FE9DF808302B76AFE7089BD4
:1077FC00099A03EB061603EB0212314606F1100050
:10780C00FFF7B8FE1EB10FA9304600F046FC099BED
:10781C000133099324E700007FB50446094B44F873
:10782C00043B05460E4601A81146FDF73CF801AA9B
:10783C0031462046FFF7E1FE01A8FCF7F3FF28468E
:10784C0004B070BD548D0D00F0B50F468BB02B49B4
:10785C00109C384616461D4601F08AF928BB002CB0
:10786C0049D0294601A8FFF7DDFD2549242000F069
:10787C009BFF0546B8B101A904A8FFF7D3FD04A9E5
:10788C0007A8FDF710F807AA31462846FFF7C4FFF2
:10789C0007A8FCF7C7FF1B4B2B602C6204A8FCF756
:1078AC00C1FF194B2B6001A81FE01849384601F0A5
:1078BC005FF9F0B9FCB1294604A8FFF7B3FD1049F4
:1078CC00242000F071FF054670B104A907A8FCF74D
:1078DC00EAFF07AA31462846FFF79EFF07A8FCF7E8
:1078EC00A1FF084B2B602C6204A8FCF79BFF2846D9
:1078FC0002E0002000E020460BB0F0BD8A920D00A3
:10790C0070940D0010930D0004920D008E920D00DA
:10791C00014B024A1A607047D0E303209F920D007E
:10792C002DE9F047089DD0F8209004460E461746E6
:10793C00984600F0B7FD814505D15A4800F067FA2A
:10794C00002840F0AC802B791B0705D56B69564A93
:10795C00206A002100F034FBB8F1000F0DD05B2140
:10796C002046FFF732FA41462046FFF720FA2368FB
:10797C004E49DB680222204698472B79D90725D53A
:10798C00D5F808802F21404601F02DF908B100F1FF
:10799C00010841462046FFF70AFA2B799A0709D5C8
:1079AC003A212046FFF711FAEB68414A206A002180
:1079BC0000F006FB2B7913F0040F236818BF3D4928
:1079CC00DB6808BF3C490222204698472B795B07AD
:1079DC0018D529690A46134613F8010B38B120282B
:1079EC0001D1194601E0282801D01A46F3E7236893
:1079FC00521ADB682046984723683049DB6804221A
:107A0C002046984700213846FDF75AFA0146204691
:107A1C00FFF7CDF923682849DB68022220469847F6
:107A2C001EB131462046FFF7C2F92B7913F0300F07
:107A3C002DD023682249DB682046022298472B79F7
:107A4C00D8060BD523681F49DB68072220469847C8
:107A5C00AB691D4A206A002100F0B2FA2B79990615
:107A6C0011D5DA0605D523681249DB6802222046B7
:107A7C00984723681549DB6820460A229847E9692C
:107A8C002046FFF794F95D212046FFF79EF9236805
:107A9C000F49DB6820460222BDE8F0471847BDE8D5
:107AAC00F08700BFA8E50320A3920D00AA920D0059
:107ABC00468E0D00AD920D00B2920D00B0920D00ED
:107ACC00B5920D00B8920D00EF8D0D00C0920D0017
:107ADC00CB920D002DE9F04385B0D0F820800C9CA2
:107AEC0006460F4691461D4600F0DCFC804505D14C
:107AFC004A4800F08CF9002840F08C80336A484AE0
:107B0C0001924FF0000801A803938DF80880FEF74E
:107B1C00F0FF41464846FDF7D3F942498046012221
:107B2C0001A8FFF76BF84146FFF731F93FB13E4929
:107B3C00012201A8FFF762F83946FFF728F93DB199
:107B4C003A49012201A8FFF759F82946FFF71FF916
:107B5C002379DF070ED5A5682F21284601F043F8BD
:107B6C0000B1451C3249012201A8FFF747F829460C
:107B7C00FFF70DF923799D0707D52E49022201A89D
:107B8C00FFF73CF8E168FEF7C1FF2379580716D5DB
:107B9C0025692F463B4613F8012B3AB1202A01D117
:107BAC001D4601E0282A01D01F46F3E70222224994
:107BBC0001A8FFF723F87A1B2946FFF72EF8237943
:107BCC00190707D51D49012201A8FFF717F86169AC
:107BDC00FEF7AEFF2379DA0608D5042218490DEB1F
:107BEC000200FFF70BF8A169FEF790FF23799B06C3
:107BFC0007D51449062201A8FFF700F8E169FFF741
:107C0C00C6F801A8FEF75FFF306A0F49036802222D
:107C1C00DB68984705B0BDE8F08300BFA8E50320FA
:107C2C00EC910D0036920D0049920D0001930D0060
:107C3C00CE920D00D0920D00D3920D00858D0D00CB
:107C4C00D6920D00DB920D00CB920D000022114656
:107C5C004068FDF7A1B9002211464068FDF7ACB9A8
:107C6C0000224068FDF7A0B9002281F001014068B4
:107C7C00FDF78AB900231A4601214068FDF77CB94B
:107C8C0000231A4619464068FDF76EB900221146CA
:107C9C004068FDF761B9002211464068FDF74CB908
:107CAC00002202214068FDF74FB900231A464068B4
:107CBC00FDF73AB938B5054688B104684CB1A368EC
:107CCC001BB103222146204698471021204600F084
:107CDC0060FD28461421BDE8384000F05ABD38BD7F
:107CEC0010B103685B681847704710B50368044609
:107CFC00BBB15868FCF764FF78B923685A7C12B999
:107D0C005868FCF765FF23685868FCF769FF206822
:107D1C000023236028B1FFF7CDFF206808B1FFF7DF
:107D2C00C9FF204610BD000038B50C4B036004465B
:107D3C00D0F8CC0108B1FCF7ACF9D4F8C45135B18A
:107D4C002846FFF7D2FF0421284600F022FDA06848
:107D5C0008B1FFF7C5FF204638BD00BF40930D00AA
:107D6C0038B50E4C0E4B23600025022304F5E4704D
:107D7C006360A560C4F8C451C4F8C851FCF740FF57
:107D8C00084BC4F8CC5184F8D05123602046064AE5
:107D9C000649BDE8384000F0F7BC00BFD4E303202F
:107DAC0074930D0040930D0024D20320357D0D00FB
:107DBC0000231A464068FDF7B7B80022022140683C
:107DCC00FDF7C2B8002211464068FDF7B5B8002295
:107DDC0011464068FDF7C0B800231A4619464068A2
:107DEC00FDF7C2B800231A4619464068FDF7C4B81F
:107DFC00002281F001014068FDF7C6B800224068FE
:107E0C00FDF7D2B8002211464068FDF7D5B8002224
:107E1C0011464068FDF7C0B82DE9F043002495B039
:107E2C0016460D460746FEF75DFD214620220CA89E
:107E3C00009400F054FE40230C9321466B460CAA90
:107E4C003046FCF77DFF0446002844D10246012150
:107E5C006868FDF781F80221804622466868FDF7C4
:107E6C007BF8009E81462146002E34D0002932D169
:107E7C007368022B02D00A2B09D02AE0B8F1000F4C
:107E8C0027D0716938460431FEF759FD20E0B9F16D
:107E9C00000F1ED07469112201A800F020FE0623E9
:107EAC008DF8143001AD04F10803183418685968C2
:107EBC002A4603C20833A3421546F7D101A906A8E6
:107ECC0007ADFEF71DFD0FCD3C1D0FC42B682370B5
:107EDC000121F669C8E70098FCF72AFF384615B06F
:107EEC00BDE8F083024B034A1A6000225A607047C7
:107EFC00A8E5032074930D00F8B506460D468F18BF
:107F0C000024BD420CD0336815F8011B9B68304629
:107F1C009847002801DB0444F3E7002C08BF044613
:107F2C002046F8BD70B505460C46084649B100F030
:107F3C0031FE2B68024621462846DB68BDE87040BE
:107F4C00184770BD03689B68184738B50D21054666
:107F5C00FFF7F8FF0A2104462846FFF7F3FF2044F9
:107F6C0038BD30B58BB00B4600218DF82410012A9A
:107F7C0098BF0A220DF12304B3FBF2F505FB123373
:107F8C0003F0FF03092B94BF30333733DBB22146A8
:107F9C0004F801392B46002DEED1FFF7C3FF0BB0CF
:107FAC0030BD10B42AB903685DF8044B9B68C9B2A4
:107FBC001847D2B25DF8044BFFF7D3BFFFF7F1BF00
:107FCC000CB42DE9F04387B000AF07F13804054637
:107FDC0054F8049B3C600E4623464A461421381D37
:107FEC00FDF70AF8132805D8391D2846FFF79AFF24
:107FFC00044613E000F1080323F00703E846ADEB59
:10800C00030D411C23464A4668463C60FCF7F4FFCE
:10801C0069462846FFF786FF0446C5461EB128462A
:10802C00FFF793FF044420461C37BD46BDE8F043E0
:10803C0002B0704710B50446FEF790FB204610BD09
:10804C000348044A04490023836000F09DBB00BF31
:10805C00B0E5032024D2032041800D00704710B5F9
:10806C001021044600F095FB204610BD70B5084B5E
:10807C000360044600250E4640F80C5FFCF7B8FD83
:10808C0030462671FCF764FEA560204670BD00BF2B
:10809C00A8930D000079FCF763BE002303604360D6
:1080AC008360037310B50C6804604C6844608C6882
:1080BC0084600B604B608B6010BD10B5044600688B
:1080CC00FCF78AFF204610BD10B50446006808B1C5
:1080DC00FCF782FF00232360A360636010BD38B5FA
:1080EC0004460D4600680131FCF77EFF10B184E8B0
:1080FC002100012038BD10B50368044613B1436854
:10810C008B4207D22046FFF7EAFF20B1A3680BB9D8
:10811C0022681370012010BD70B50E46114604463E
:10812C001546FFF7E8FF18B92046FFF7CDFF09E029
:10813C002A463146A560206800F0ABFC2268A36893
:10814C000021D154204670BD002310B504460360B5
:10815C0043608360037309B1FFF7DEFF204610BD57
:10816C0038B50023044603604360836003730D46F7
:10817C0039B1084600F00EFD294602462046FFF7AD
:10818C00CBFF204638BD38B5054600680C4660B1BB
:10819C006A688B689A4206D3096800F0F3FCA368FE
:1081AC00AB6000230AE0FCF717FF23682B606368C1
:1081BC006B60A368AB60002323606360A36038BD71
:1081CC00884210B50B46044607D0096819B19A6865
:1081DC00FFF7A2FF01E0FFF777FF204610BD10B5B7
:1081EC00002304460360436083600373FFF7E8FFDA
:1081FC00204610BD884210B5044601D0FFF7C3FFDE
:10820C00204610BD38B505460C4641B1084600F075
:10821C00C1FC214602462846FFF77EFF01E0FFF72E
:10822C0053FF284638BD70B504460E4609B90020E8
:10823C0070BD6AB18368D5182946FFF75CFF00282A
:10824C00F5D02068A3683146184400F09BFCA5606B
:10825C00012070BD07B500238DF80410012201A97F
:10826C008DF80530FFF7DFFF03B05DF804FB08B5B0
:10827C0082680B4612B919B9012008BD11B90368FF
:10828C00187802E0006800F073FCB0FA80F0400946
:10829C0008BD0000044B00204FF6FF721870588088
:1082AC009A80FCF71DBE00BFC0E50320024B1A6884
:1082BC00024B1A60704700BFB8D10320C8E50320F9
:1082CC0070474174704708B5007CFCF791FD20EABB
:1082DC00E07008BD08B5007CFCF762FD20EAE07098
:1082EC0008BD08B5007CFCF76BFD30EA200028BF08
:1082FC004FF0FF3008BD08B5007CFCF759FD30EAA3
:10830C00200028BF4FF0FF3008BD007CFCF760BD9B
:10831C0010B51421044600F03CFA204610BD70B58F
:10832C00457C04460E4625B9007CFCF761FD00280F
:10833C0005DD3146207CBDE87040FCF729BD2846A0
:10834C0070BD000010B5044608461146002262605C
:10835C004FF47A72A260054A226001222074627482
:10836C001A46FCF705FD204610BD00BFE4930D0036
:10837C000023007CFCF744BD0022FFF7F9BF007C12
:10838C00FCF7FEBC007CFCF72BBD000038B50C4D97
:10839C00296811F0010411D12846FBF787FE68B15A
:1083AC00084A094B09482146FFF7CCFF2846FBF742
:1083BC0082FE074A0749054800F0E6F9034838BD34
:1083CC0064E6032068E60320E0E50320CCE5032007
:1083DC0024D20320CD820D0041747047704708B53C
:1083EC000021007CFCF73CFD30EA200028BF4FF058
:1083FC00FF3008BD08B50121007CFCF731FD30EAE7
:10840C00200028BF4FF0FF3008BD08B5007CFCF7FA
:10841C001FFD20EAE07008BD08B5007CFCF710FDDC
:10842C0020EAE07008BD007CFCF72ABD10B51421D1
:10843C00044600F0AEF9204610BD38B50446007C69
:10844C000D46FCF705FD002801DC607C28B12946AF
:10845C00207CFCF70DFD20EAE07038BD10B5044619
:10846C00002363604FF47A73A360054B23600123F0
:10847C000846217463741146FCF7CAFC204610BDF3
:10848C0014940D000022007CFCF7CABC007CFCF7A5
:10849C00CFBC10B514220446002100F020FB20466E
:1084AC0010BD000030B50E4D87B001A8FFF7F1FFED
:1084BC00296811F0010410D12846FBF7F7FD60B1D3
:1084CC0001AA21460748FFF7C9FF2846FBF7F3FD31
:1084DC00054A0649034800F057F9024807B030BD79
:1084EC00ECE60320F0E6032024D20320E9830D0000
:1084FC00002211464068FCF72FBD0022114640684F
:10850C00FCF74ABD002211464068FCF755BD00221D
:10851C004068FCF749BD002281F001014068FCF77E
:10852C0033BD00231A4619464068FCF725BD0023CD
:10853C001A4619464068FCF717BD002211464068E0
:10854C00FCF7FABC002202214068FCF7FDBC0023BA
:10855C001A464068FCF7E8BC024B04225A60024AF7
:10856C001A60704704E7032044940D0008B50C4BC7
:10857C0033B1FFF797FF03681B699847002809DCA4
:10858C00084B63B1FFF702FF03681B69984700288B
:10859C0003DC08BDAFF30080F2E7AFF3008008BD49
:1085AC00000000000000000008B5FFF7DFFFFCF73B
:1085BC004FFB014B186008BD10E7032007B50023E3
:1085CC0000931A466FF07701FCF79CFC03B05DF842
:1085DC0004FB000007B543880A2B08D0502B09D1A7
:1085EC00094B1B683BB103B05DF804EB1847FFF770
:1085FC00E5FF06E0002300931A466FF07701FCF7C5
:10860C0081FC03B05DF804FB0CE7032010B5FCF70C
:10861C000FFB044600F06CFA074B13B12046AFF386
:10862C00008000210448FCF777FC00210348BDE8DA
:10863C001040FCF75DBC00BF00000000E1850D00A0
:10864C0010B504460F48FFF725FD28B1A4F10B0324
:10865C00022B01D8002010BD00F054F8FEF704F9ED
:10866C0008B1012CF6D9FFF791FEFFF78BFE18B17C
:10867C00A4F10903012BEDD9232C8CBF0020012080
:10868C0010BD00BF2CE70320232838B504460D4647
:10869C000AD8FF2908D0FFF7D3FF28B12946204676
:1086AC00BDE83840FCF7E4BA38BD38B504460D4691
:1086BC00FCF7E6FAFF2810D0062804D84D2323FA3D
:1086CC0000F0C30709D42046FFF7BAFF28B12946AA
:1086DC002046BDE83840FCF7DBBA38BD10B504467F
:1086EC00FCF7CEFA0438C0B2012808D92046FFF7AF
:1086FC00A7FF20B12046BDE81040FCF7D1BA0020FE
:10870C0010BD000038B50B4D296811F001040FD1D4
:10871C002846FBF7CBFC58B121460748FEF792F8E8
:10872C002846FBF7C8FC054A0549034800F02CF81D
:10873C00014838BD14E7032018E7032024D2032096
:10874C00F9670D0070B50C4C0C4E0D4D00212046F8
:10875C00FFF78CFC20460B4C3246294600F014F8EF
:10876C0001212046FFF782FC324629462046BDE80F
:10877C00704000F009B800BF2CE7032024D203207E
:10878C0069800D003CE703200B460146184600F0BB
:10879C0063B9FBF77CBC0000024B1868BFF35F8F1A
:1087AC00704700BF4CE7032010B5002814BF0446E7
:1087BC0001242046FCF708FC20B9FFF7EDFF08B1B7
:1087CC008047F6E710BD0000244B1A68D0075CBF49
:1087DC0001221A60224B1A68D1075CBF01221A6071
:1087EC00204B1A68D2075CBF01221A601E4B1A6814
:1087FC00D0075CBF01221A601C4B1A68D1075CBF02
:10880C0001221A601A4B1A68D2075CBF01221A6047
:10881C00184B1A68D0075CBF01221A60164B1A68F5
:10882C00D1075CBF01221A60144B1A68D2075CBFD7
:10883C0001221A60124B1A68D0075CBF01221A6021
:10884C00104B1A68D1075CBF01221A600E4B1A68D4
:10885C00D2075CBF01221A60704700BF7CE703207F
:10886C0078E7032074E7032070E703206CE703200C
:10887C0068E7032064E7032060E703205CE703203C
:10888C0058E7032054E7032050E70320184B1A68DD
:10889C00D1075CBF01221A60164B1A68D2075CBF65
:1088AC0001221A60144B1A68D0075CBF01221A60AF
:1088BC00124B1A68D1075CBF01221A60104B1A6860
:1088CC00D2075CBF01221A600E4B1A68D0075CBF3E
:1088DC0001221A600C4B1A68D1075CBF01221A6086
:1088EC000A4B1A68D2075CBF01221A60704700BF9E
:1088FC009CE7032098E7032094E7032090E70320EC
:10890C008CE7032088E7032084E7032080E703201B
:10891C00184B1A68D1075CBF01221A60164B1A68F3
:10892C00D2075CBF01221A60144B1A68D0075CBFD7
:10893C0001221A60124B1A68D1075CBF01221A601F
:10894C00104B1A68D2075CBF01221A600E4B1A68D2
:10895C00D0075CBF01221A600C4B1A68D1075CBFB0
:10896C0001221A600A4B1A68D2075CBF01221A60F6
:10897C00704700BFBCE70320B8E70320B4E703202F
:10898C00B0E70320ACE70320A8E70320A4E703200B
:10899C00A0E70320244B1A68D0075CBF01221A60A1
:1089AC00224B1A68D1075CBF01221A60204B1A684F
:1089BC00D2075CBF01221A601E4B1A68D0075CBF3D
:1089CC0001221A601C4B1A68D1075CBF01221A6085
:1089DC001A4B1A68D2075CBF01221A60184B1A682E
:1089EC00D0075CBF01221A60164B1A68D1075CBF16
:1089FC0001221A60144B1A68D2075CBF01221A605C
:108A0C00124B1A68D0075CBF01221A60104B1A680F
:108A1C00D1075CBF01221A600E4B1A68D2075CBFEB
:108A2C0001221A60704700BFECE70320E8E703203F
:108A3C00E4E70320E0E70320DCE70320D8E703208A
:108A4C00D4E70320D0E70320CCE70320C8E70320BA
:108A5C00C4E70320C0E7032010B5054C13462CB126
:108A6C000A4601460220AFF3008010BD204610BD1F
:108A7C000000000010B501390244904207D010F8F4
:108A8C00013B11F8014FA342F7D0181B10BD002079
:108A9C0010BD10B5431E0A44914204D011F8014B8D
:108AAC0003F8014FF8E710BD884210B501EB020343
:108ABC0001D8421E0BE09842FBD28118D21AD34245
:108ACC0004D013F8014D01F8014DF8E710BD99429F
:108ADC0004D011F8014B02F8014FF8E710BD024425
:108AEC000346934202D003F8011BFAE770470000DB
:108AFC0038B5124B1C68A36B0546D3B91820FCF78C
:108B0C0063FA43F20E33A06303804AF6CD334380FD
:108B1C0041F2342383804EF26D63C3804DF6EC63D7
:108B2C000381052343810B23838101220023C0E9A8
:108B3C000423A36B00221D615A6138BD20D203208F
:108B4C00C9B2034610F8012B1AB19142F9D118465B
:108B5C00704700290CBF18460020704710B504461A
:108B6C00FFF7EEFF18B9204600F014F8204410BDB2
:108B7C0010F8012B11F8013B012A28BF9A42F7D0BB
:108B8C00D01A7047034611F8012B03F8012B002A69
:108B9C00F9D17047034613F8012B002AFBD1181AA0
:108BAC000138704730B582B1451E013915F8013FC7
:108BBC0011F8014FA34206D1EC431444E04201D01A
:108BCC00002BF3D11C46181B30BD104630BD10B520
:108BDC00034601448B4204D01A785C1C0AB123462C
:108BEC00F8E7181A10BD38B503460D4641B10024FC
:108BFC0029461846FFF7A4FF30B1431C0446F7E79B
:108C0C00BDE83840FFF79CBF204638BD2DE9F04742
:108C1C0080464048D0F800900F463D4615F8014B71
:108C2C0009EB0400407800F0080000F0FF0608B1E2
:108C3C002F46F2E72D2C03D1BD1C7C78012603E0D6
:108C4C002B2C04BF7C78BD1C13B1102B0AD15BE01C
:108C5C00302C57D1287800F0DF0058284DD16C7893
:108C6C0010230235002E14BF4FF0004C6FF0004C57
:108C7C000027BCFBF3FA384603FB1ACC09EB040EB5
:108C8C009EF801E01EF0040F01D0303C0BE01EF00A
:108C9C00030E1BD0BEF1010F0CBF4FF0370E4FF07F
:108CAC00570ECEEB0404A34210DDB7F1FF3F0AD000
:108CBC00504506D801D1644503DC03FB0040012775
:108CCC0001E04FF0FF3715F8014BD7E77B1C0CD1B7
:108CDC00002E4FF0220314BF4FF000406FF0004005
:108CEC00C8F800302AB9BDE8F08706B1404272B12D
:108CFC0007B1691E1160BDE8F0873024002BB1D19B
:108D0C000823AFE70A23ADE7302CA3D0AAE7BDE8D0
:108D1C00F08700BFBCD1032013460A460146024827
:108D2C000068FFF773BF00BF20D203201D400D0069
:108D3C0059400D0085400D0089400D0000000000D9
:108D4C000000000000000000000000000000000017
:108D5C00A5400D00C9400D000000000000000000FF
:108D6C005D410D0091410D002D790D00CB400D00A2
:108D7C00446973636F6E6E6563740048656C6C6FE9
:108D8C00207468652064617461206368616E676536
:108D9C006400506C616E7420646174613A202575B6
:108DAC00003031323334353637383941424344455B
:108DBC0046005363616E6E696E6720666F72207039
:108DCC0065726970686572616C732E2E2E2E00535D
:108DDC0063616E206475726174696F6E20286D73A7
:108DEC00293A20256900424C452E7363616E20663A
:108DFC006F756E6420256420646576696365730005
:108E0C004D41433A20253032583A253032583A25D4
:108E1C003032583A253032583A253032583A2530CB
:108E2C003258207C20525353493A202564426D20FD
:108E3C0053657276696365733A20256400466F75D5
:108E4C006E642025642073657276696365730053C4
:108E5C006572766963652025642C20555549443A22
:108E6C0020257300313041420053746F7070696E6D
:108E7C006720424C45207363616E2E2E2E2E0043CC
:108E8C006F6E6E656374696F6E204661696C6564A4
:108E9C0000466F756E642025752053657276696384
:108EAC0065730053657276696365203A20307825C6
:108EBC00730020202020204C4F4E4720202573008B
:108ECC00466F756E642025752063686172616374EA
:108EDC006572696373697469637300436861726175
:108EEC0063746572697369746963203A20307825FC
:108EFC00730043494F5420524F434B53212121219E
:108F0C00002E2E2E616E6420736F20646F202573EB
:108F1C00005065726970686572616C206973204ECF
:108F2C004F5420636F6E6E6563746564003030302F
:108F3C0030464539352D303030302D313030302DF4
:108F4C00383030302D3030383035463942333446B5
:108F5C0042000000000000000000000021500D0045
:108F6C0027500D0079640D0051500D0023500D0059
:108F7C0000000000000000001B500D0035500D00DB
:108F8C0035660D0055500D001D500D000000000001
:108F9C000000000015500D0043500D008B5B0D00C0
:108FAC0059500D0017500D00776972696E672E626B
:108FBC006C6500537461727420646973636F7665B9
:108FCC0072696E672073657276696365732E0053E0
:108FDC007461727420646973636F766572696E670D
:108FEC002063686172616374657269737469637319
:108FFC002E0050656572206465766963652069731F
:10900C00206D697373696E6721004661696C6564D4
:10901C0020746F20617070656E64207065657220BD
:10902C0043656E7472616C206465766963652E00AD
:10903C00436F6E6E65637465642062792043656E60
:10904C007472616C206465766963652E0044697383
:10905C00636F6E6E65637465642062792072656DF2
:10906C006F7465206465766963652E0043616E6E6E
:10907C006F7420616464206E657720706565722062
:10908C006465766963652E004E657720706572693C
:10909C0070686572616C20697320636F6E6E6563B6
:1090AC007465642E004661696C656420746F206180
:1090BC007070656E6420646973636F766572656445
:1090CC002063686172616374657269737469632E7D
:1090DC00004661696C656420746F20617070656E08
:1090EC006420646973636F7665726564207365725E
:1090FC00766963652E004661696C656420746F2027
:10910C00617070656E64206C6F63616C2063686164
:10911C0072616374657269737469632E004475704F
:10912C006C69636174656420636861726163746502
:10913C007269737469632063616E6E6F742062650B
:10914C002061646465642E000000000000000000D3
:10915C00D9670D00CF670D00C5670D00BB670D000B
:10916C00AF670D00A3670D0097670D008F670D00AB
:10917C0085670D007B670D00257E0D00000000004B
:10918C0000000000F9670D0043680D001B680D001E
:10919C00FB670D0023680D002B680D0033680D0074
:1091AC003B680D0000000000000000008D680D0001
:1091BC007D680D007F680D00302E300066616C7389
:1091CC00650074727565002567006E756C6C0075B2
:1091DC002530347800000000000000000000000082
:1091EC00116D0D00376D0D00EB6C0D008F690D00CE
:1091FC0000000000000000008D710D00A1710D0039
:10920C00E17A0D00F36C0D0000000000000000007E
:10921C000D6D0D00536D0D00A5700D00616D0D00F1
:10922C00626175640053657269616C0053657269A3
:10923C00616C31007479706500706172616D0063EE
:10924C006D6400696400686E64007374726D00660E
:10925C00696C74006C766C0061646448616E646C5B
:10926C0065720072656D6F766548616E646C6572CF
:10927C0000656E756D48616E646C657273004A535F
:10928C004F4E53747265616D4C6F6748616E646CC0
:10929C0065720061707000253031307520005D20E2
:1092AC00002C200028293A2000205B00636F6465A5
:1092BC00203D200064657461696C73203D20000DB5
:1092CC000A0066006C6E00666E00636F6465006475
:1092DC00657461696C006E6F6E65007472616365B4
:1092EC0000696E666F007761726E006572726F72E4
:1092FC000070616E696300616C6C0000000000001E
:10930C000000000061710D0079710D002D790D00C8
:10931C00CB400D0000000000000000000F6D0D00A0
:10932C00456D0D0055780D00F56C0D00000000002A
:10933C0000000000B77C0D00AD7C0D00A37C0D007F
:10934C00997C0D008D7C0D00817C0D00757C0D00D1
:10935C006D7C0D00637C0D00597C0D00257E0D008D
:10936C000000000000000000BD7D0D00C77D0D0059
:10937C00D17D0D00DB7D0D00E57D0D00F17D0D0037
:10938C00FD7D0D00097E0D00117E0D001B7E0D0074
:10939C00257E0D00000000000000000069800D001B
:1093AC006B800D005A00252B3033643A2530327512
:1093BC000025592D256D2D25645425483A254D3A07
:1093CC002553257A0061736374696D650000000094
:1093DC000000000000000000CD820D001D830D0078
:1093EC002B830D00057F0D00E1820D0003830D0022
:1093FC00EF820D0017830D00CF820D00D3820D007C
:10940C000000000000000000E9830D0039840D000D
:10941C0047840D00057F0D0025840D00EB830D00A6
:10942C0001840D0033840D0017840D00E5830D00BD
:10943C0000000000000000005B850D0051850D0050
:10944C0047850D00FD840D003B850D002F850D001B
:10945C0023850D001B850D0011850D0007850D0062
:10946C00257E0D00000020202020202020202028F8
:10947C0028282828202020202020202020202020C0
:10948C0020202020202088101010101010101010F8
:10949C001010101010100404040404040404040438
:1094AC0010101010101010414141414141010101B7
:1094BC000101010101010101010101010101010190
:1094CC00011010101010104242424242420202029D
:1094DC000202020202020202020202020202020260
:1094EC00021010101020000000000000000000000E
:1094FC000000000000000000000000000000000060
:10950C00000000000000000000000000000000004F
:10951C00000000000000000000000000000000003F
:10952C00000000000000000000000000000000002F
:10953C00000000000000000000000000000000001F
:10954C00000000000000000000000000000000000F
:10955C0000000000000000000000000000000000FF
:10956C0000000000000000000000000000000000EF
:10957C0000000000000000000000000000000000DF
:10958C0000000000000000000000000000000000CF
:10959C0000000000000000000000000000000000BF
:1095AC0000000000000000000000000000000000AF
:1095BC00000000000000000000000000000000009F
:1095CC0000000000000000004300000019490D00DD
:1095DC0059670D00E5670D001D790D006D7D0D00BF
:1095EC00F17E0D004D800D00A1820D00B9820D00A1
:1095FC0065850D0051870D00D5870D0099880D00EC
:10960C001D890D00A1890D00000000000000000064
:04961C00000000004A
:109620001C920D0028930D00D1930D0071940D0034
:109630000000000074950D0094950D00B4950D0088
:10964000000000000000000000000000000000001A
:10965000D4950D0000000000000000000000000094
:1096600000000000000000000000000000000000FA
:1096700000000000000000000000000000000000EA
:1096800000000000000000000000000000000000DA
:04969000C0D1032022
:10969400FFFFFFFF00000102030405060708090A93
:1096A4000B0C0D0E0F101112131415161718191A8E
:0896B4001B1C1D1E1F202800D5
:0496BC007856341296
:04000003D000401CCD
:00000001FF
